:020000040000FA
:10000000C00300206501000069010000DD0200005E
:1000100000000000000000000000000000000000E0
:100020000000000000000000000000006D01000062
:1000300000000000000000006F01000071010000DE
:100040007301000073010000730100000000000054
:10005000000000000000000073010000000000002C
:10006000000000000000000073010000000000001C
:1000700073010000590400004905000073010000ED
:1000800073010000730100007301000073010000A0
:100090007301000073010000730100007301000090
:1000A000730100005D060000730100007301000091
:1000B0001D0300001103000005030000F902000009
:1000C00000F002F800F03EF812A030C808382418FA
:1000D0002D18AC4201D100F035F80FCCA246AB464A
:1000E0000CA730CF2D1B083F3F197C427F1E544484
:1000F0002D090426F441641EAC4201D300F022F81D
:100100000126334200D0FB1A3343984754465D46DC
:10011000DFE70000700C0000800C0000704700005A
:100120000023002400250026103A01D378C1FBD813
:10013000520700D330C100D50B6070471FB51FBDFB
:1001400010B510BD00F050F81146FFF7F7FF00F0B2
:10015000A1FA00F068F803B4FFF7F2FF03BC00F067
:100160006FF8000006480047FEE7FEE7FEE7FEE7FF
:10017000FEE7FEE703480449024A044B70470000CB
:10018000C1000000C0010020C0030020C001002009
:10019000D2B210B513029A1813049A1800F001F89D
:1001A00010BD01E004C0091F0429FBD28B0701D553
:1001B0000280801CC90700D00270704700290BD054
:1001C000C30702D00270401C491E022904D38307D2
:1001D00002D50280801C891EE3E70022EEE70022A0
:1001E000DFE7704770477047754600F025F8AE4668
:1001F000050069465346C008C000854618B020B5C2
:10020000FFF7B8FF60BCB64600260027C0C5C0C5D2
:10021000C0C5C0C5C0C5C0C5C0C5C0C5403D4908F2
:1002200049008D46704710B50446C046C04620467A
:10023000FFF791FF10BD000000487047000000204C
:1002400001491820ABBEFEE72600020070470000FF
:10025000B0B50C48FF2141600F214A020A494A60AB
:100260000A4A13785B1CDCB2032C00D900235CB271
:10027000A40007A52C590C601370D9B2084A515C30
:100280000160B0BD2440044024600440A50100206A
:100290000002000000040000000800000010000040
:1002A000B401002001200102094A13680B431360C6
:1002B0001162400211680143116010620548FF217C
:1002C000016041620F2040020349086048627047A4
:1002D00004A004400440044004600440BFF34F8F76
:1002E000034804490160BFF34F8F00BFFDE7C046DC
:1002F0000CED00E00400FA0501480B49016070476D
:1003000020400440014808490160704720600440D3
:1003100001480549016070472080044001480249B6
:100320000160704720A00440FF3F00000548002105
:1003300001624162016501640160416041610248FE
:1003400001607047002004409020044070B5264DA5
:10035000281F00684006410F244C042920D87D2026
:100360000002C0467944097949008F4402171113ED
:10037000090028461038006880070ED520460DE099
:1003800028460C380068C004204607D5184805E008
:10039000184803E00120C00300E01748174908602F
:1003A00028684007C00E16A10958144E306800F0A6
:1003B000EDFB30602968090704D54000032100F0F7
:1003C000E5FB30603168B248154A914204D80246D4
:1003D000A14205D9293004E002461932A142F9D8D8
:1003E00010461049086070BD10000640006CDC0229
:1003F0000090D0030024F400001BB7006800002028
:1004000001000000020000000400000008000000DD
:1004100010000000200000004000000080000000EC
:10042000FF356E01002006400A48014610390A686F
:1004300002239A430A60021F0021116013685B06C1
:100440005B0FFBD10160026808239A4302600162DE
:100450007047C04610000640B0B581B03948846886
:10046000E1073BD11E491F4A1F4B02E08468E507A4
:1004700034D12407640F641E062CF7D87C442479F9
:100480006400A7440406160303030400EEE744696E
:10049000ECE7446901250D70E40704D00468156891
:1004A0005C556C1C14601468FF2CDFD100241460B0
:1004B000DCE744692506D9D5650704D4250706D4A9
:1004C000E406D3D507E0056800952507F8D505684B
:1004D0000095E406CAD504680094C7E701B0B0BD32
:1004E0006B010020600000206C00002010B501208E
:1004F00001044C4A13680B4313600E4983220A60BF
:100500007522CA610A46083A002313600B460C3B69
:1005100004241C600B688024A3430B600B1F07247A
:100520001C60424B1360C1224A624003404908608C
:1005300010BDC0460C600140024908604869400691
:10054000FCD5704700600140B0B581B03C4884687C
:10055000E1073BD11E491F4A1F4B02E08468E507B3
:1005600034D12407640F641E062CF7D87C44247908
:100570006400A7440406160303030400EEE744697D
:10058000ECE7446901250D70E40704D004681568A0
:100590005C556C1C14601468382CDFD10024146086
:1005A000DCE744692506D9D5650704D4250706D4B8
:1005B000E406D3D507E0056800952507F8D505685A
:1005C0000095E406CAD504680094C7E701B0B0BD41
:1005D000A4010020640000206C01002010B501205F
:1005E0004104104A13680B4313600F4983220A60C9
:1005F0007522CA610A46083A002313600B460C3B79
:1006000004241C600B688024A3430B600B1F072489
:100610001C60064B1360C1224A62800304490860D3
:1006200010BDC04600E005400C6005401703000007
:1006300000E100E00249086048694006FCD57047C7
:100640000060054081B00E21414300910098411E99
:1006500000910028FAD101B0704700000B483449DE
:10066000C16001680A4A0A4304218A430260704754
:100670000648074901600A463D3282602C4AC26042
:1006800002680A43012111430160704700000140E4
:100690000000FA5AEAB0FFF7C7FEFFF757FEFFF770
:1006A00045FE1A4801680125A9430160FFF7FAFDDC
:1006B000174900200860174903900860164838243D
:1006C0002146FFF78AFD15482146FFF786FDFFF713
:1006D0000DFF134C0A202060FFF780FF03206060AD
:1006E000FFF7C6FF12A83C30029022A8F03001901C
:1006F0000C4C0D4B0F9505E0FFF7AAFD0A20FFF704
:10070000A1FF094B09480A4901601DE01C00064091
:1007100064000020600000206C0000206C010020BC
:1007200020200440B9010020B10100200C0001404C
:10073000AA55FA5A0020F8490870F84B1870F84981
:100740000870F8490870F84C2078F8490968814227
:1007500000D1DDE1F649095C1A78002A16D0EE4A8C
:100760001278002A18D0EF4E3278FB4FB954521C41
:100770003270EB490978D2B2042A01D3012903D09F
:10078000022A22D3022920D1FB4913E0002913D0E9
:10079000FF291AD1012115E0F64A1278012A01D168
:1007A000FF2903D0022A0CD100290AD10399EF4A6C
:1007B0001170ED490D7008E00221EE4A117001211F
:1007C00002E00399EB4A11701970401C2070EA484E
:1007D00000780028B8D00398E7490870E548007809
:1007E000022800D12AE10128A4D15820E3498870C9
:1007F000792048705E20087022A80399DC4A525C78
:10080000082304465B1E1646DE402E402670641CFC
:10081000002BF7D10830491C0429EFD10020199092
:10082000189017901690159014901390129012A98A
:100830001F231F461C463E4622AA125D8A55083CCD
:10084000761E1B2EF8D15B1E091F401C0828F1D113
:10085000002212A9CA480E920E9E0746865408230B
:100860000C465B1E207898400643641C002BF8D190
:100870003846BE540831521C042AEDD100240646E5
:10088000305DFFF759FE641C042CF9D1290222A81F
:10089000FF22FFF77DFC12A84021FFF7A0FC0020FB
:1008A000B04B66A90B50001D1028FAD100206690AD
:1008B000099001460490069011E065996991649948
:1008C000689163996791629966910999891C099168
:1008D0000599891C069A521C0692102A6DD0072091
:1008E000059101400891049962AA5350091D1029ED
:1008F000FAD1002104E00799491C0429994BDCD066
:100900000791890066AA5258591E0D928A42F2DC5C
:100910000799490002220C910A400B9200210A918A
:1009200003E0611C002C0F9DE5D10E910C9A114340
:1009300005220A40930853405A085A402A4011920F
:100940000A0C4A40110A51400A094A409108514094
:100950004A084A402A401092099A089D0A9B194663
:1009600004E0521C6D1C091D04290DD12E46464081
:10097000D708834CE75DF7400F9E374010AE76589E
:10098000BE42EED05B1CECE70D9959180E9C224636
:100990000B9B1A43930062AEF558A942C1DAF518D1
:1009A000069C260122AFBE19079FF750A3000E9C9C
:1009B00012AEF3189C542960B3E700270422669C0A
:1009C0002B4605E0121D5B1C042B34460F4609D054
:1009D00066A98E58A642194600DB3946A642F1DBCD
:1009E0002646EFE70024674A547014700F22029BDA
:1009F000019E0D9408E089007158CD17A9431B1F73
:100A0000103E521E551C10D25D5C002DF3D00546E1
:100A100095430127AF40D5080E950E9D594C655D55
:100A20003D430E9FE5550D9CE5E70F9D554E305D0E
:100A3000FFF782FD641C012CF9D07BE622A800257B
:100A4000057122954A4948780978090208180A90E0
:100A5000112428460D952F462E460E950CE00D9D2F
:100A6000EDB286002E430C98C0B240003043641EA5
:100A70000D930B9E154617D00C97012C0E9B1F460D
:100A800008D02F467740A11E0A9ACA40012313407E
:100A90005F4073400B950121012C0E9ADFD0A51EFB
:100AA0000A9AEA400A40DAE700231F260C961A4603
:100AB0001C460D940E960C9C1D190746EF400F40E6
:100AC000B7403A43083E641E1B2CF5D10E9E761E9D
:100AD0001B1F0D9C641C082CEBD122A80171C27055
:100AE000110A8170110C4170110E0170002422A8AE
:100AF000005DFFF721FD641C042CF8D100240F9D3C
:100B000022A8005DFFF796FD641C042CF8D111E6C5
:100B10001D4F387810E0C046B2010020B10100201E
:100B2000B8010020AA010020B901002060000020C7
:100B30006C0000203870C0B208490968814200D1B9
:100B4000DAE50749085CFFF7F7FC3878401CC1B2CA
:100B5000FF29EFD10020EDE7A6010020640000206E
:100B60006C010020FFFFFF1FB2010020AA0100203E
:100B7000A6010020B8010020B3010020B40100202C
:100B8000AD010020AB010020BA01002043088B42D8
:100B90001AD3002203098B4279D3030A8B425ED316
:100BA000030B8B4242D3030C8B4227D30902FF2253
:100BB00012BA030C8B4202D31212090203D0030BA8
:100BC0008B4233D31AE0D3E0411A8041401C704776
:100BD00003460B4371D443088B42F5D3002203092B
:100BE0008B4254D3030A8B4239D3030B8B421DD360
:100BF000030C8B4202D394466EE0090AC30B8B426E
:100C000001D3CB03C01A5241830B8B4201D38B0318
:100C1000C01A5241430B8B4201D34B03C01A5241BD
:100C2000030B8B4201D30B03C01A5241C30A8B4200
:100C300001D3CB02C01A5241830A8B4201D38B02EB
:100C4000C01A5241430A8B4201D34B02C01A52418F
:100C5000030A8B4201D30B02C01A5241CDD2C30901
:100C60008B4201D3CB01C01A524183098B4201D37D
:100C70008B01C01A524143098B4201D34B01C01A68
:100C8000524103098B4201D30B01C01A5241C308E0
:100C90008B4201D3CB00C01A524183088B4201D34F
:100CA0008B00C01A524143088B4201D34B00C01A3B
:100CB0005241411A524110007047CA0F00D04942B8
:100CC000031000D34042534000229C4603098B424C
:100CD0002DD3030A8B4212D38901FC2212BA030AD4
:100CE0008B420CD3890192118B4208D38901921156
:100CF0008B4204D3890137D0921100E08909C309DE
:100D00008B4201D3CB01C01A524183098B4201D3DC
:100D10008B01C01A524143098B4201D34B01C01AC7
:100D2000524103098B4201D30B01C01A5241C3083F
:100D30008B4201D3CB00C01A524183088B4201D3AE
:100D40008B00C01A5241D9D243088B4201D34B00C9
:100D5000C01A5241411A00D2014652411046634620
:100D60005B1000D34042704763465B1000D34042A3
:100D700001B50021004201D0C9430846C046C04623
:100D800002BD0000940D000000000020C003000020
:040D9000200100003E
:020000040000FA
:047FFC005555AAAA83
:04000005000000C136
:00000001FF
